{
  "contractName": "VotingToken",
  "abi": [
    {
      "inputs": [],
      "stateMutability": "nonpayable",
      "type": "constructor"
    },
    {
      "inputs": [
        {
          "internalType": "address",
          "name": "spender",
          "type": "address"
        },
        {
          "internalType": "uint256",
          "name": "allowance",
          "type": "uint256"
        },
        {
          "internalType": "uint256",
          "name": "needed",
          "type": "uint256"
        }
      ],
      "name": "ERC20InsufficientAllowance",
      "type": "error"
    },
    {
      "inputs": [
        {
          "internalType": "address",
          "name": "sender",
          "type": "address"
        },
        {
          "internalType": "uint256",
          "name": "balance",
          "type": "uint256"
        },
        {
          "internalType": "uint256",
          "name": "needed",
          "type": "uint256"
        }
      ],
      "name": "ERC20InsufficientBalance",
      "type": "error"
    },
    {
      "inputs": [
        {
          "internalType": "address",
          "name": "approver",
          "type": "address"
        }
      ],
      "name": "ERC20InvalidApprover",
      "type": "error"
    },
    {
      "inputs": [
        {
          "internalType": "address",
          "name": "receiver",
          "type": "address"
        }
      ],
      "name": "ERC20InvalidReceiver",
      "type": "error"
    },
    {
      "inputs": [
        {
          "internalType": "address",
          "name": "sender",
          "type": "address"
        }
      ],
      "name": "ERC20InvalidSender",
      "type": "error"
    },
    {
      "inputs": [
        {
          "internalType": "address",
          "name": "spender",
          "type": "address"
        }
      ],
      "name": "ERC20InvalidSpender",
      "type": "error"
    },
    {
      "anonymous": false,
      "inputs": [
        {
          "indexed": true,
          "internalType": "address",
          "name": "owner",
          "type": "address"
        },
        {
          "indexed": true,
          "internalType": "address",
          "name": "spender",
          "type": "address"
        },
        {
          "indexed": false,
          "internalType": "uint256",
          "name": "value",
          "type": "uint256"
        }
      ],
      "name": "Approval",
      "type": "event"
    },
    {
      "anonymous": false,
      "inputs": [
        {
          "indexed": true,
          "internalType": "uint256",
          "name": "proposalId",
          "type": "uint256"
        },
        {
          "indexed": false,
          "internalType": "string",
          "name": "description",
          "type": "string"
        }
      ],
      "name": "ProposalCreated",
      "type": "event"
    },
    {
      "anonymous": false,
      "inputs": [
        {
          "indexed": true,
          "internalType": "address",
          "name": "from",
          "type": "address"
        },
        {
          "indexed": true,
          "internalType": "address",
          "name": "to",
          "type": "address"
        },
        {
          "indexed": false,
          "internalType": "uint256",
          "name": "value",
          "type": "uint256"
        }
      ],
      "name": "Transfer",
      "type": "event"
    },
    {
      "anonymous": false,
      "inputs": [
        {
          "indexed": true,
          "internalType": "address",
          "name": "voter",
          "type": "address"
        },
        {
          "indexed": true,
          "internalType": "uint256",
          "name": "proposalId",
          "type": "uint256"
        }
      ],
      "name": "Voted",
      "type": "event"
    },
    {
      "inputs": [
        {
          "internalType": "address",
          "name": "owner",
          "type": "address"
        },
        {
          "internalType": "address",
          "name": "spender",
          "type": "address"
        }
      ],
      "name": "allowance",
      "outputs": [
        {
          "internalType": "uint256",
          "name": "",
          "type": "uint256"
        }
      ],
      "stateMutability": "view",
      "type": "function",
      "constant": true
    },
    {
      "inputs": [
        {
          "internalType": "address",
          "name": "spender",
          "type": "address"
        },
        {
          "internalType": "uint256",
          "name": "value",
          "type": "uint256"
        }
      ],
      "name": "approve",
      "outputs": [
        {
          "internalType": "bool",
          "name": "",
          "type": "bool"
        }
      ],
      "stateMutability": "nonpayable",
      "type": "function"
    },
    {
      "inputs": [
        {
          "internalType": "address",
          "name": "account",
          "type": "address"
        }
      ],
      "name": "balanceOf",
      "outputs": [
        {
          "internalType": "uint256",
          "name": "",
          "type": "uint256"
        }
      ],
      "stateMutability": "view",
      "type": "function",
      "constant": true
    },
    {
      "inputs": [],
      "name": "decimals",
      "outputs": [
        {
          "internalType": "uint8",
          "name": "",
          "type": "uint8"
        }
      ],
      "stateMutability": "view",
      "type": "function",
      "constant": true
    },
    {
      "inputs": [
        {
          "internalType": "address",
          "name": "",
          "type": "address"
        }
      ],
      "name": "hasVoted",
      "outputs": [
        {
          "internalType": "bool",
          "name": "",
          "type": "bool"
        }
      ],
      "stateMutability": "view",
      "type": "function",
      "constant": true
    },
    {
      "inputs": [],
      "name": "name",
      "outputs": [
        {
          "internalType": "string",
          "name": "",
          "type": "string"
        }
      ],
      "stateMutability": "view",
      "type": "function",
      "constant": true
    },
    {
      "inputs": [],
      "name": "owner",
      "outputs": [
        {
          "internalType": "address",
          "name": "",
          "type": "address"
        }
      ],
      "stateMutability": "view",
      "type": "function",
      "constant": true
    },
    {
      "inputs": [
        {
          "internalType": "uint256",
          "name": "",
          "type": "uint256"
        }
      ],
      "name": "proposals",
      "outputs": [
        {
          "internalType": "string",
          "name": "description",
          "type": "string"
        },
        {
          "internalType": "uint256",
          "name": "voteCount",
          "type": "uint256"
        }
      ],
      "stateMutability": "view",
      "type": "function",
      "constant": true
    },
    {
      "inputs": [],
      "name": "symbol",
      "outputs": [
        {
          "internalType": "string",
          "name": "",
          "type": "string"
        }
      ],
      "stateMutability": "view",
      "type": "function",
      "constant": true
    },
    {
      "inputs": [],
      "name": "totalSupply",
      "outputs": [
        {
          "internalType": "uint256",
          "name": "",
          "type": "uint256"
        }
      ],
      "stateMutability": "view",
      "type": "function",
      "constant": true
    },
    {
      "inputs": [
        {
          "internalType": "address",
          "name": "to",
          "type": "address"
        },
        {
          "internalType": "uint256",
          "name": "value",
          "type": "uint256"
        }
      ],
      "name": "transfer",
      "outputs": [
        {
          "internalType": "bool",
          "name": "",
          "type": "bool"
        }
      ],
      "stateMutability": "nonpayable",
      "type": "function"
    },
    {
      "inputs": [
        {
          "internalType": "address",
          "name": "from",
          "type": "address"
        },
        {
          "internalType": "address",
          "name": "to",
          "type": "address"
        },
        {
          "internalType": "uint256",
          "name": "value",
          "type": "uint256"
        }
      ],
      "name": "transferFrom",
      "outputs": [
        {
          "internalType": "bool",
          "name": "",
          "type": "bool"
        }
      ],
      "stateMutability": "nonpayable",
      "type": "function"
    },
    {
      "inputs": [
        {
          "internalType": "uint256",
          "name": "proposalId",
          "type": "uint256"
        }
      ],
      "name": "vote",
      "outputs": [],
      "stateMutability": "nonpayable",
      "type": "function"
    },
    {
      "inputs": [
        {
          "internalType": "string",
          "name": "description",
          "type": "string"
        }
      ],
      "name": "createProposal",
      "outputs": [],
      "stateMutability": "nonpayable",
      "type": "function"
    }
  ],
  "bytecode": "0x60806040523480156200001157600080fd5b506040518060400160405280600b81526020017f566f74696e67546f6b656e0000000000000000000000000000000000000000008152506040518060400160405280600481526020017f564f54450000000000000000000000000000000000000000000000000000000081525081600390816200008f91906200066d565b508060049081620000a191906200066d565b505050620000e633620000b96200012d60201b60201c565b60ff16600a620000ca9190620008d7565b620f4240620000da919062000928565b6200013660201b60201c565b33600560006101000a81548173ffffffffffffffffffffffffffffffffffffffff021916908373ffffffffffffffffffffffffffffffffffffffff16021790555062000a7b565b60006012905090565b600073ffffffffffffffffffffffffffffffffffffffff168273ffffffffffffffffffffffffffffffffffffffff1603620001ab5760006040517fec442f05000000000000000000000000000000000000000000000000000000008152600401620001a29190620009b8565b60405180910390fd5b620001bf60008383620001c360201b60201c565b5050565b600073ffffffffffffffffffffffffffffffffffffffff168373ffffffffffffffffffffffffffffffffffffffff1603620002195780600260008282546200020c9190620009d5565b92505081905550620002ef565b60008060008573ffffffffffffffffffffffffffffffffffffffff1673ffffffffffffffffffffffffffffffffffffffff16815260200190815260200160002054905081811015620002a8578381836040517fe450d38c0000000000000000000000000000000000000000000000000000000081526004016200029f9392919062000a21565b60405180910390fd5b8181036000808673ffffffffffffffffffffffffffffffffffffffff1673ffffffffffffffffffffffffffffffffffffffff16815260200190815260200160002081905550505b600073ffffffffffffffffffffffffffffffffffffffff168273ffffffffffffffffffffffffffffffffffffffff16036200033a578060026000828254039250508190555062000387565b806000808473ffffffffffffffffffffffffffffffffffffffff1673ffffffffffffffffffffffffffffffffffffffff168152602001908152602001600020600082825401925050819055505b8173ffffffffffffffffffffffffffffffffffffffff168373ffffffffffffffffffffffffffffffffffffffff167fddf252ad1be2c89b69c2b068fc378daa952ba7f163c4a11628f55a4df523b3ef83604051620003e6919062000a5e565b60405180910390a3505050565b600081519050919050565b7f4e487b7100000000000000000000000000000000000000000000000000000000600052604160045260246000fd5b7f4e487b7100000000000000000000000000000000000000000000000000000000600052602260045260246000fd5b600060028204905060018216806200047557607f821691505b6020821081036200048b576200048a6200042d565b5b50919050565b60008190508160005260206000209050919050565b60006020601f8301049050919050565b600082821b905092915050565b600060088302620004f57fffffffffffffffffffffffffffffffffffffffffffffffffffffffffffffffff82620004b6565b620005018683620004b6565b95508019841693508086168417925050509392505050565b6000819050919050565b6000819050919050565b60006200054e62000548620005428462000519565b62000523565b62000519565b9050919050565b6000819050919050565b6200056a836200052d565b62000582620005798262000555565b848454620004c3565b825550505050565b600090565b620005996200058a565b620005a68184846200055f565b505050565b5b81811015620005ce57620005c26000826200058f565b600181019050620005ac565b5050565b601f8211156200061d57620005e78162000491565b620005f284620004a6565b8101602085101562000602578190505b6200061a6200061185620004a6565b830182620005ab565b50505b505050565b600082821c905092915050565b6000620006426000198460080262000622565b1980831691505092915050565b60006200065d83836200062f565b9150826002028217905092915050565b6200067882620003f3565b67ffffffffffffffff811115620006945762000693620003fe565b5b620006a082546200045c565b620006ad828285620005d2565b600060209050601f831160018114620006e55760008415620006d0578287015190505b620006dc85826200064f565b8655506200074c565b601f198416620006f58662000491565b60005b828110156200071f57848901518255600182019150602085019450602081019050620006f8565b868310156200073f57848901516200073b601f8916826200062f565b8355505b6001600288020188555050505b505050505050565b7f4e487b7100000000000000000000000000000000000000000000000000000000600052601160045260246000fd5b60008160011c9050919050565b6000808291508390505b6001851115620007e257808604811115620007ba57620007b962000754565b5b6001851615620007ca5780820291505b8081029050620007da8562000783565b94506200079a565b94509492505050565b600082620007fd5760019050620008d0565b816200080d5760009050620008d0565b8160018114620008265760028114620008315762000867565b6001915050620008d0565b60ff84111562000846576200084562000754565b5b8360020a91508482111562000860576200085f62000754565b5b50620008d0565b5060208310610133831016604e8410600b8410161715620008a15782820a9050838111156200089b576200089a62000754565b5b620008d0565b620008b0848484600162000790565b92509050818404811115620008ca57620008c962000754565b5b81810290505b9392505050565b6000620008e48262000519565b9150620008f18362000519565b9250620009207fffffffffffffffffffffffffffffffffffffffffffffffffffffffffffffffff8484620007eb565b905092915050565b6000620009358262000519565b9150620009428362000519565b9250828202620009528162000519565b915082820484148315176200096c576200096b62000754565b5b5092915050565b600073ffffffffffffffffffffffffffffffffffffffff82169050919050565b6000620009a08262000973565b9050919050565b620009b28162000993565b82525050565b6000602082019050620009cf6000830184620009a7565b92915050565b6000620009e28262000519565b9150620009ef8362000519565b925082820190508082111562000a0a5762000a0962000754565b5b92915050565b62000a1b8162000519565b82525050565b600060608201905062000a386000830186620009a7565b62000a47602083018562000a10565b62000a56604083018462000a10565b949350505050565b600060208201905062000a75600083018462000a10565b92915050565b61196f8062000a8b6000396000f3fe608060405234801561001057600080fd5b50600436106100ea5760003560e01c8063313ce5671161008c5780638da5cb5b116100665780638da5cb5b1461027257806395d89b4114610290578063a9059cbb146102ae578063dd62ed3e146102de576100ea565b8063313ce5671461020857806349c2a1a61461022657806370a0823114610242576100ea565b8063095ea7b3116100c8578063095ea7b31461015a57806309eef43e1461018a57806318160ddd146101ba57806323b872dd146101d8576100ea565b80630121b93f146100ef578063013cf08b1461010b57806306fdde031461013c575b600080fd5b61010960048036038101906101049190610f5a565b61030e565b005b61012560048036038101906101209190610f5a565b6104bc565b604051610133929190611026565b60405180910390f35b610144610578565b6040516101519190611056565b60405180910390f35b610174600480360381019061016f91906110d6565b61060a565b6040516101819190611131565b60405180910390f35b6101a4600480360381019061019f919061114c565b61062d565b6040516101b19190611131565b60405180910390f35b6101c261064d565b6040516101cf9190611179565b60405180910390f35b6101f260048036038101906101ed9190611194565b610657565b6040516101ff9190611131565b60405180910390f35b610210610686565b60405161021d9190611203565b60405180910390f35b610240600480360381019061023b9190611353565b61068f565b005b61025c6004803603810190610257919061114c565b6107c8565b6040516102699190611179565b60405180910390f35b61027a610810565b60405161028791906113ab565b60405180910390f35b610298610836565b6040516102a59190611056565b60405180910390f35b6102c860048036038101906102c391906110d6565b6108c8565b6040516102d59190611131565b60405180910390f35b6102f860048036038101906102f391906113c6565b6108eb565b6040516103059190611179565b60405180910390f35b600660003373ffffffffffffffffffffffffffffffffffffffff1673ffffffffffffffffffffffffffffffffffffffff16815260200190815260200160002060009054906101000a900460ff161561039b576040517f08c379a000000000000000000000000000000000000000000000000000000000815260040161039290611452565b60405180910390fd5b60078054905081106103e2576040517f08c379a00000000000000000000000000000000000000000000000000000000081526004016103d9906114be565b60405180910390fd5b6001600660003373ffffffffffffffffffffffffffffffffffffffff1673ffffffffffffffffffffffffffffffffffffffff16815260200190815260200160002060006101000a81548160ff0219169083151502179055506007818154811061044e5761044d6114de565b5b906000526020600020906002020160010160008154809291906104709061153c565b9190505550803373ffffffffffffffffffffffffffffffffffffffff167f4d99b957a2bc29a30ebd96a7be8e68fe50a3c701db28a91436490b7d53870ca460405160405180910390a350565b600781815481106104cc57600080fd5b90600052602060002090600202016000915090508060000180546104ef906115b3565b80601f016020809104026020016040519081016040528092919081815260200182805461051b906115b3565b80156105685780601f1061053d57610100808354040283529160200191610568565b820191906000526020600020905b81548152906001019060200180831161054b57829003601f168201915b5050505050908060010154905082565b606060038054610587906115b3565b80601f01602080910402602001604051908101604052809291908181526020018280546105b3906115b3565b80156106005780601f106105d557610100808354040283529160200191610600565b820191906000526020600020905b8154815290600101906020018083116105e357829003601f168201915b5050505050905090565b600080610615610972565b905061062281858561097a565b600191505092915050565b60066020528060005260406000206000915054906101000a900460ff1681565b6000600254905090565b600080610662610972565b905061066f85828561098c565b61067a858585610a20565b60019150509392505050565b60006012905090565b600560009054906101000a900473ffffffffffffffffffffffffffffffffffffffff1673ffffffffffffffffffffffffffffffffffffffff163373ffffffffffffffffffffffffffffffffffffffff161461071f576040517f08c379a000000000000000000000000000000000000000000000000000000000815260040161071690611630565b60405180910390fd5b600060078054905090506007604051806040016040528084815260200160008152509080600181540180825580915050600190039060005260206000209060020201600090919091909150600082015181600001908161077f91906117fc565b50602082015181600101555050807f9c770c289ab5bf7e57cb1d23c8ceae993aea46eb64847072fd3d78ca60d3e432836040516107bc9190611056565b60405180910390a25050565b60008060008373ffffffffffffffffffffffffffffffffffffffff1673ffffffffffffffffffffffffffffffffffffffff168152602001908152602001600020549050919050565b600560009054906101000a900473ffffffffffffffffffffffffffffffffffffffff1681565b606060048054610845906115b3565b80601f0160208091040260200160405190810160405280929190818152602001828054610871906115b3565b80156108be5780601f10610893576101008083540402835291602001916108be565b820191906000526020600020905b8154815290600101906020018083116108a157829003601f168201915b5050505050905090565b6000806108d3610972565b90506108e0818585610a20565b600191505092915050565b6000600160008473ffffffffffffffffffffffffffffffffffffffff1673ffffffffffffffffffffffffffffffffffffffff16815260200190815260200160002060008373ffffffffffffffffffffffffffffffffffffffff1673ffffffffffffffffffffffffffffffffffffffff16815260200190815260200160002054905092915050565b600033905090565b6109878383836001610b14565b505050565b600061099884846108eb565b90507fffffffffffffffffffffffffffffffffffffffffffffffffffffffffffffffff8114610a1a5781811015610a0a578281836040517ffb8f41b2000000000000000000000000000000000000000000000000000000008152600401610a01939291906118ce565b60405180910390fd5b610a1984848484036000610b14565b5b50505050565b600073ffffffffffffffffffffffffffffffffffffffff168373ffffffffffffffffffffffffffffffffffffffff1603610a925760006040517f96c6fd1e000000000000000000000000000000000000000000000000000000008152600401610a8991906113ab565b60405180910390fd5b600073ffffffffffffffffffffffffffffffffffffffff168273ffffffffffffffffffffffffffffffffffffffff1603610b045760006040517fec442f05000000000000000000000000000000000000000000000000000000008152600401610afb91906113ab565b60405180910390fd5b610b0f838383610ceb565b505050565b600073ffffffffffffffffffffffffffffffffffffffff168473ffffffffffffffffffffffffffffffffffffffff1603610b865760006040517fe602df05000000000000000000000000000000000000000000000000000000008152600401610b7d91906113ab565b60405180910390fd5b600073ffffffffffffffffffffffffffffffffffffffff168373ffffffffffffffffffffffffffffffffffffffff1603610bf85760006040517f94280d62000000000000000000000000000000000000000000000000000000008152600401610bef91906113ab565b60405180910390fd5b81600160008673ffffffffffffffffffffffffffffffffffffffff1673ffffffffffffffffffffffffffffffffffffffff16815260200190815260200160002060008573ffffffffffffffffffffffffffffffffffffffff1673ffffffffffffffffffffffffffffffffffffffff168152602001908152602001600020819055508015610ce5578273ffffffffffffffffffffffffffffffffffffffff168473ffffffffffffffffffffffffffffffffffffffff167f8c5be1e5ebec7d5bd14f71427d1e84f3dd0314c0f7b2291e5b200ac8c7c3b92584604051610cdc9190611179565b60405180910390a35b50505050565b600073ffffffffffffffffffffffffffffffffffffffff168373ffffffffffffffffffffffffffffffffffffffff1603610d3d578060026000828254610d319190611905565b92505081905550610e10565b60008060008573ffffffffffffffffffffffffffffffffffffffff1673ffffffffffffffffffffffffffffffffffffffff16815260200190815260200160002054905081811015610dc9578381836040517fe450d38c000000000000000000000000000000000000000000000000000000008152600401610dc0939291906118ce565b60405180910390fd5b8181036000808673ffffffffffffffffffffffffffffffffffffffff1673ffffffffffffffffffffffffffffffffffffffff16815260200190815260200160002081905550505b600073ffffffffffffffffffffffffffffffffffffffff168273ffffffffffffffffffffffffffffffffffffffff1603610e595780600260008282540392505081905550610ea6565b806000808473ffffffffffffffffffffffffffffffffffffffff1673ffffffffffffffffffffffffffffffffffffffff168152602001908152602001600020600082825401925050819055505b8173ffffffffffffffffffffffffffffffffffffffff168373ffffffffffffffffffffffffffffffffffffffff167fddf252ad1be2c89b69c2b068fc378daa952ba7f163c4a11628f55a4df523b3ef83604051610f039190611179565b60405180910390a3505050565b6000604051905090565b600080fd5b600080fd5b6000819050919050565b610f3781610f24565b8114610f4257600080fd5b50565b600081359050610f5481610f2e565b92915050565b600060208284031215610f7057610f6f610f1a565b5b6000610f7e84828501610f45565b91505092915050565b600081519050919050565b600082825260208201905092915050565b60005b83811015610fc1578082015181840152602081019050610fa6565b60008484015250505050565b6000601f19601f8301169050919050565b6000610fe982610f87565b610ff38185610f92565b9350611003818560208601610fa3565b61100c81610fcd565b840191505092915050565b61102081610f24565b82525050565b600060408201905081810360008301526110408185610fde565b905061104f6020830184611017565b9392505050565b600060208201905081810360008301526110708184610fde565b905092915050565b600073ffffffffffffffffffffffffffffffffffffffff82169050919050565b60006110a382611078565b9050919050565b6110b381611098565b81146110be57600080fd5b50565b6000813590506110d0816110aa565b92915050565b600080604083850312156110ed576110ec610f1a565b5b60006110fb858286016110c1565b925050602061110c85828601610f45565b9150509250929050565b60008115159050919050565b61112b81611116565b82525050565b60006020820190506111466000830184611122565b92915050565b60006020828403121561116257611161610f1a565b5b6000611170848285016110c1565b91505092915050565b600060208201905061118e6000830184611017565b92915050565b6000806000606084860312156111ad576111ac610f1a565b5b60006111bb868287016110c1565b93505060206111cc868287016110c1565b92505060406111dd86828701610f45565b9150509250925092565b600060ff82169050919050565b6111fd816111e7565b82525050565b600060208201905061121860008301846111f4565b92915050565b600080fd5b600080fd5b7f4e487b7100000000000000000000000000000000000000000000000000000000600052604160045260246000fd5b61126082610fcd565b810181811067ffffffffffffffff8211171561127f5761127e611228565b5b80604052505050565b6000611292610f10565b905061129e8282611257565b919050565b600067ffffffffffffffff8211156112be576112bd611228565b5b6112c782610fcd565b9050602081019050919050565b82818337600083830152505050565b60006112f66112f1846112a3565b611288565b90508281526020810184848401111561131257611311611223565b5b61131d8482856112d4565b509392505050565b600082601f83011261133a5761133961121e565b5b813561134a8482602086016112e3565b91505092915050565b60006020828403121561136957611368610f1a565b5b600082013567ffffffffffffffff81111561138757611386610f1f565b5b61139384828501611325565b91505092915050565b6113a581611098565b82525050565b60006020820190506113c0600083018461139c565b92915050565b600080604083850312156113dd576113dc610f1a565b5b60006113eb858286016110c1565b92505060206113fc858286016110c1565b9150509250929050565b7f596f75206861766520616c726561647920766f74656400000000000000000000600082015250565b600061143c601683610f92565b915061144782611406565b602082019050919050565b6000602082019050818103600083015261146b8161142f565b9050919050565b7f496e76616c69642070726f706f73616c20494400000000000000000000000000600082015250565b60006114a8601383610f92565b91506114b382611472565b602082019050919050565b600060208201905081810360008301526114d78161149b565b9050919050565b7f4e487b7100000000000000000000000000000000000000000000000000000000600052603260045260246000fd5b7f4e487b7100000000000000000000000000000000000000000000000000000000600052601160045260246000fd5b600061154782610f24565b91507fffffffffffffffffffffffffffffffffffffffffffffffffffffffffffffffff82036115795761157861150d565b5b600182019050919050565b7f4e487b7100000000000000000000000000000000000000000000000000000000600052602260045260246000fd5b600060028204905060018216806115cb57607f821691505b6020821081036115de576115dd611584565b5b50919050565b7f4f6e6c79206f776e65722063616e206372656174652070726f706f73616c7300600082015250565b600061161a601f83610f92565b9150611625826115e4565b602082019050919050565b600060208201905081810360008301526116498161160d565b9050919050565b60008190508160005260206000209050919050565b60006020601f8301049050919050565b600082821b905092915050565b6000600883026116b27fffffffffffffffffffffffffffffffffffffffffffffffffffffffffffffffff82611675565b6116bc8683611675565b95508019841693508086168417925050509392505050565b6000819050919050565b60006116f96116f46116ef84610f24565b6116d4565b610f24565b9050919050565b6000819050919050565b611713836116de565b61172761171f82611700565b848454611682565b825550505050565b600090565b61173c61172f565b61174781848461170a565b505050565b5b8181101561176b57611760600082611734565b60018101905061174d565b5050565b601f8211156117b05761178181611650565b61178a84611665565b81016020851015611799578190505b6117ad6117a585611665565b83018261174c565b50505b505050565b600082821c905092915050565b60006117d3600019846008026117b5565b1980831691505092915050565b60006117ec83836117c2565b9150826002028217905092915050565b61180582610f87565b67ffffffffffffffff81111561181e5761181d611228565b5b61182882546115b3565b61183382828561176f565b600060209050601f8311600181146118665760008415611854578287015190505b61185e85826117e0565b8655506118c6565b601f19841661187486611650565b60005b8281101561189c57848901518255600182019150602085019450602081019050611877565b868310156118b957848901516118b5601f8916826117c2565b8355505b6001600288020188555050505b505050505050565b60006060820190506118e3600083018661139c565b6118f06020830185611017565b6118fd6040830184611017565b949350505050565b600061191082610f24565b915061191b83610f24565b92508282019050808211156119335761193261150d565b5b9291505056fea2646970667358221220522df2e6a59d4cf1cc7fa5ac3573181c4f6d6d1a077f6dd8e7c8815705cab7fb64736f6c63430008140033",
  "immutableReferences": {},
  "source": "pragma solidity ^0.8.20;\r\n\r\nimport \"@openzeppelin/contracts/token/ERC20/ERC20.sol\";\r\n\r\ncontract VotingToken is ERC20 {\r\n    address public owner;\r\n    mapping(address => bool) public hasVoted;\r\n\r\n    event Voted(address indexed voter, uint256 indexed proposalId);\r\n    event ProposalCreated(uint256 indexed proposalId, string description);\r\n\r\n    struct Proposal {\r\n        string description;\r\n        uint256 voteCount;\r\n    }\r\n\r\n    Proposal[] public proposals;\r\n\r\n    constructor() ERC20(\"VotingToken\", \"VOTE\") {\r\n        _mint(msg.sender, 1000000 * 10 ** uint(decimals()));\r\n        owner = msg.sender;\r\n    }\r\n\r\n    function vote(uint256 proposalId) external {\r\n        require(!hasVoted[msg.sender], \"You have already voted\");\r\n        require(proposalId < proposals.length, \"Invalid proposal ID\");\r\n\r\n        hasVoted[msg.sender] = true;\r\n        proposals[proposalId].voteCount++;\r\n\r\n        emit Voted(msg.sender, proposalId);\r\n    }\r\n\r\n    function createProposal(string memory description) external {\r\n        require(msg.sender == owner, \"Only owner can create proposals\");\r\n\r\n        uint256 proposalId = proposals.length;\r\n        proposals.push(Proposal(description, 0));\r\n\r\n        emit ProposalCreated(proposalId, description);\r\n    }\r\n}",
  "sourcePath": "D:\\VotingToken\\contracts\\VotingToken.sol",
  "compiler": {
    "name": "solc",
    "version": "0.8.20+commit.a1b79de6.Emscripten.clang"
  },
  "schemaVersion": "3.4.16",
  "updatedAt": "2024-04-08T23:02:13.530Z",
  "networkType": "ethereum",
  "devdoc": {
    "errors": {
      "ERC20InsufficientAllowance(address,uint256,uint256)": [
        {
          "details": "Indicates a failure with the `spender`s `allowance`. Used in transfers.",
          "params": {
            "allowance": "Amount of tokens a `spender` is allowed to operate with.",
            "needed": "Minimum amount required to perform a transfer.",
            "spender": "Address that may be allowed to operate on tokens without being their owner."
          }
        }
      ],
      "ERC20InsufficientBalance(address,uint256,uint256)": [
        {
          "details": "Indicates an error related to the current `balance` of a `sender`. Used in transfers.",
          "params": {
            "balance": "Current balance for the interacting account.",
            "needed": "Minimum amount required to perform a transfer.",
            "sender": "Address whose tokens are being transferred."
          }
        }
      ],
      "ERC20InvalidApprover(address)": [
        {
          "details": "Indicates a failure with the `approver` of a token to be approved. Used in approvals.",
          "params": {
            "approver": "Address initiating an approval operation."
          }
        }
      ],
      "ERC20InvalidReceiver(address)": [
        {
          "details": "Indicates a failure with the token `receiver`. Used in transfers.",
          "params": {
            "receiver": "Address to which tokens are being transferred."
          }
        }
      ],
      "ERC20InvalidSender(address)": [
        {
          "details": "Indicates a failure with the token `sender`. Used in transfers.",
          "params": {
            "sender": "Address whose tokens are being transferred."
          }
        }
      ],
      "ERC20InvalidSpender(address)": [
        {
          "details": "Indicates a failure with the `spender` to be approved. Used in approvals.",
          "params": {
            "spender": "Address that may be allowed to operate on tokens without being their owner."
          }
        }
      ]
    },
    "events": {
      "Approval(address,address,uint256)": {
        "details": "Emitted when the allowance of a `spender` for an `owner` is set by a call to {approve}. `value` is the new allowance."
      },
      "Transfer(address,address,uint256)": {
        "details": "Emitted when `value` tokens are moved from one account (`from`) to another (`to`). Note that `value` may be zero."
      }
    },
    "kind": "dev",
    "methods": {
      "allowance(address,address)": {
        "details": "See {IERC20-allowance}."
      },
      "approve(address,uint256)": {
        "details": "See {IERC20-approve}. NOTE: If `value` is the maximum `uint256`, the allowance is not updated on `transferFrom`. This is semantically equivalent to an infinite approval. Requirements: - `spender` cannot be the zero address."
      },
      "balanceOf(address)": {
        "details": "See {IERC20-balanceOf}."
      },
      "decimals()": {
        "details": "Returns the number of decimals used to get its user representation. For example, if `decimals` equals `2`, a balance of `505` tokens should be displayed to a user as `5.05` (`505 / 10 ** 2`). Tokens usually opt for a value of 18, imitating the relationship between Ether and Wei. This is the default value returned by this function, unless it's overridden. NOTE: This information is only used for _display_ purposes: it in no way affects any of the arithmetic of the contract, including {IERC20-balanceOf} and {IERC20-transfer}."
      },
      "name()": {
        "details": "Returns the name of the token."
      },
      "symbol()": {
        "details": "Returns the symbol of the token, usually a shorter version of the name."
      },
      "totalSupply()": {
        "details": "See {IERC20-totalSupply}."
      },
      "transfer(address,uint256)": {
        "details": "See {IERC20-transfer}. Requirements: - `to` cannot be the zero address. - the caller must have a balance of at least `value`."
      },
      "transferFrom(address,address,uint256)": {
        "details": "See {IERC20-transferFrom}. Emits an {Approval} event indicating the updated allowance. This is not required by the EIP. See the note at the beginning of {ERC20}. NOTE: Does not update the allowance if the current allowance is the maximum `uint256`. Requirements: - `from` and `to` cannot be the zero address. - `from` must have a balance of at least `value`. - the caller must have allowance for ``from``'s tokens of at least `value`."
      }
    },
    "version": 1
  },
  "userdoc": {
    "kind": "user",
    "methods": {},
    "version": 1
  }
}